:020000040800F2
:10000000500D0020C1010008D30F0008C7020008EE
:10001000D10F0008CB040008C51200080000000042
:10002000000000000000000000000000D50F0008E4
:10003000CD0400080000000013020008D70F0008DC
:10004000DB010008DB010008DB010008DB01000820
:10005000DB010008DB010008DB010008DB01000810
:10006000DB010008DB010008DB010008DB01000800
:10007000DB010008DB010008DB010008DB010008F0
:10008000DB010008DB010008DB010008DB010008E0
:10009000DB010008DB010008DB010008DB010008D0
:1000A000DB010008DB010008DB010008DB010008C0
:1000B000DB010008DB010008DB010008DB010008B0
:1000C000DB010008DB010008DB010008DB010008A0
:1000D000DB010008DB010008DB010008DB01000890
:1000E000DB010008DB010008DB010008DB01000880
:1000F000DB010008DB010008DB010008DB01000870
:10010000DB010008DB010008DB010008DB0100085F
:10011000DB010008DB010008DB010008DB0100084F
:10012000DB010008DB010008DB010008DB0100083F
:10013000DB010008DB010008DB010008DB0100082F
:10014000DB010008DB010008DB010008DB0100081F
:10015000DB010008DB010008DB010008DB0100080F
:10016000DB010008DB010008DB010008DB010008FF
:10017000DB010008DB010008DB01000800000000D3
:10018000DB010008DB010008DB010008DB010008DF
:10019000DB010008DB010008DB010008DB010008CF
:1001A000DB010008DB010008DB010008DFF80CD0F0
:1001B00000F074F900480047C1040008500D002009
:1001C0000648804706480047FEE7FEE7FEE7FEE7F1
:1001D000FEE7FEE7FEE7FEE7FEE7FEE705110008A3
:1001E000AD010008EFF3108072B6704780F31088FD
:1001F0007047434A1368012B04D04FF0010313608A
:10020000404A1060404A116040484FF08051016000
:100210007047EFF3108272B63948016851B34FF05E
:10022000000101603748016891B1EFF309811EF0C8
:10023000100F08BF21ED108B21E9F00F4FF00004E3
:100240001EF0100F08BF012441F8044D0068016042
:100250002D490968096808C9B1E8F00F002B18BFDB
:10026000B1EC108B81F309884EF0100E002B18BFF3
:100270002EF0100E82F310884EF0040E70472249C3
:100280000860EFF3148222F0040282F314881D49FF
:100290004FF0000008601A494FF0010008601C4848
:1002A0004FF47F01D0F8002041EA020101601748B5
:1002B0004FF08051016017480068006880F308889B
:1002C00061B662B670471EF0040F0CBFEFF30880F2
:1002D000EFF3098020E9F00F40F804ED40F804ED59
:1002E0001EF0040F0CBF80F3088880F3098800B566
:1002F00002F05AFA5DF804EB4EF0040E704700006D
:10030000840000207C0000208000002004ED00E03C
:1003100020ED00E008ED00E02DE9F05F054600204B
:1003200092469B4688460646814640241BE0284666
:1003300041464746224600F0A0F853465A46C01AA6
:10034000914110D311461846224600F087F82D1A25
:1003500067EB01084F4622460120002100F07EF89D
:1003600017EB00094E41201EA4F10104DFDC4846D2
:1003700031462A464346BDE8F09F40EA01039B0709
:1003800003D009E008C9121F08C0042AFAD203E00A
:1003900011F8013B00F8013B521EF9D27047D2B26E
:1003A00001E000F8012B491EFBD270470022F6E75E
:1003B00010B513460A4604461946FFF7F0FF2046DB
:1003C00010BD421E12F8013F002BFBD111F8013B7A
:1003D00002F8013B002BF9D1704710B5044604E048
:1003E0000B7800F8013B03B1491C521EF8D220469D
:1003F00010BD421C10F8011B0029FBD1801A704768
:10040000034611F8012B00F8012B002AF9D11846F8
:10041000704730B505460020034600E05B1C934260
:1004200005D2EC5CC85C201A01D1002CF6D130BD9D
:1004300030B50B46014600202022012409E021FAB4
:1004400002F59D4205D303FA02F5491B04FA02F5B1
:100450002844151EA2F10102F1DC30BD202A04DB84
:10046000203A00FA02F1002070479140C2F12003C7
:1004700020FA03F3194390407047202A04DB203A06
:1004800021FA02F00021704721FA02F3D040C2F1B4
:10049000200291400843194670470000064C074D62
:1004A00006E0E06840F0010394E807009847103444
:1004B000AC42F6D3FFF77EFE80390008A039000871
:1004C00010B503F059F8002010BDFEE770477047E3
:1004D0002DE9F84F00224FF0010803254FF00F0ED1
:1004E0000B6808FA02F42340A3426ED14E68012E35
:1004F00005D0022E03D0112E01D0122E12D1866803
:100500004FEA420C05FA0CF7BE43CF6807FA0CF726
:10051000374387604668A6430C79C4F300149440BF
:1005200034434460C668570005FA07FC8C6826EA25
:100530000C06BC403443C4604C68022C01D0122C21
:1005400013D1D40800EB8404A346D4F820905407B8
:100550004FEAD46A0EFA0AF629EA06090E6906FA83
:100560000AF646EA0906CBF8206004680E7924EA08
:100570000C0406F00306BE40264306604C68E40007
:100580006FD53B4C266846F480462660246822F0EE
:10059000030604F480440094364C3444A446D4F852
:1005A00008489607360F0EFA06F7BC43324FB8429A
:1005B00001D100272EE0314FB84201D1012729E0B7
:1005C0002F4FB84202D1022724E04AE02D4FB84213
:1005D00001D103271EE02C4FB84201D1042719E0B6
:1005E0002A4FB84201D1052714E0294FB84201D162
:1005F00006270FE0274FB84201D107270AE0264F10
:10060000B84201D1082705E0244FB84201D109279B
:1006100000E00A27B7402743CCF80878204E34681A
:100620004F689C43FF0300D51C4334601C4E361DAD
:1006300034684F689C43BF0300D51C433460184E98
:10064000083634684F689C43FF0200D51C43346071
:10065000134E0C3634684F689C43BF0200D51C43D0
:100660003460521C102AFFF43BAFBDE8F88F000045
:1006700044380240003001400000024000040240C3
:1006800000080240000C024000100240001402402A
:1006900000180240001C02400020024000240240DA
:1006A000003C01400AB1816170470904FBE700008A
:1006B0000148806870470000000000200B4810B51A
:1006C000016841F400710160016841F480610160DA
:1006D000016841F480710160032000F061F800209E
:1006E00000F006F800F024F8002010BD003C0240A5
:1006F00070B50D4D04464FF47A712878B1FBF0F0D7
:100700000A490968B1FBF0F000F02EFB48B9102C43
:1007100007D200222146501E00F022F800206C6013
:1007200070BD012070BD0000000000200C00002002
:100730000A4808B5016841F480410160006800F48E
:10074000804000900548001F016841F08051016021
:10075000006800F08050009008BD0000443802405E
:10076000F0B40E4B1B680C46C3F30223C3F107051C
:10077000042D00D90425191D072901D2002300E00A
:10078000DB1E012606FA05F1491E214099409E40D4
:10079000761E16403143F0BC00F0A6BD0CED00E023
:1007A000064900F0070208684FF6FF03184040EAC8
:1007B0000220034A10430860704700000CED00E07F
:1007C0000000FA052DE9F8431748016841F080510F
:1007D00001600068154F00F08050012600903E64D3
:1007E000FFF766FF05464FF47A78114C05E000BF2D
:1007F000FFF75EFF401B40450DD86068C003F7D58A
:100800007E64FFF755FF0546464607E0FFF750FFB9
:10081000401BB04202D90320BDE8F8836068800322
:10082000F4D50020F8E700004038024000000E42F6
:10083000007000402DE9F0470E46050065D0DFF856
:100840001481D8F80000F7B200F00F00B04207D2D0
:1008500088F80070D8F8000000F00F00B04254D1C2
:1008600028683D4C810712D5400703D5206840F425
:10087000E05020602878000703D5206840F46040ED
:1008800020602068A96820F0F000084320602878E4
:10089000C0072DD0304968680839012812D00228D5
:1008A00013D0032811D00968890700292DDA21689F
:1008B00021F0030101432160FFF7FAFE814641F276
:1008C000883A0EE009688903EFE709688901ECE7D7
:1008D000FFF7EEFEA0EB0901514502D90320BDE868
:1008E000F0872068696800F00C00B0EB810FEFD151
:1008F000D8F80010404601F00F01B14207D9077047
:10090000006800F00F00B04201D00120E7E728782E
:10091000400705D52068E96820F4E05008432060CE
:100920002878000706D52068296920F4604040EA4D
:10093000C100206000F038F82168084AC1F30311B3
:10094000515CC8400649086006480068FFF7D0FEC1
:100950000020C4E7003C024008380240D6360008B8
:100960000C000020040000200448054900680968C4
:10097000044AC1F38221515CC84070470C0000203A
:1009800008380240E636000804480549006809684E
:10099000044AC1F34231515CC84070470C0000204A
:1009A00008380240E6360008154810B5006810F017
:1009B0000C02144813D01449042A0FD0082A0ED16F
:1009C0000F4C241F2268236802F03F025B0207D508
:1009D0002068C0F38810A0FB010106E0084610BDA6
:1009E0002168C1F38811A1FB00010023FFF794FCEB
:1009F0002168C1F30141491C4900B0FBF1F010BD71
:100A0000083802400024F40040787D012DE9F84FB9
:100A100004006ED02078DFF83C93C007A9F10405EC
:100A20004AD009F104000168C1F38101012908D00D
:100A30000068C0F3810002280AD1D9F80000400202
:100A400006D52868800337D560680028E1D033E0F8
:100A50006068B0F5803F10D0B0F5A02F286810D0A6
:100A600020F480302860286820F4802028606068A6
:100A7000A8B1FFF71DFE06460DE0286840F480305F
:100A8000F4E740F480202860F7E700BFFFF710FE8E
:100A9000801B642873D828688003F7D50CE0FFF723
:100AA00007FE064605E000BFFFF702FE801B642834
:100AB000F0D828688003F7D42078DFF89C8280077C
:100AC0004FF0000A3ED5A348001D016811F00C0F3D
:100AD00008D00068C0F3810002280BD1D9F80000CB
:100AE000400207D42868800716D5E068012800D1A5
:100AF00012E02BE1E068B8B10120C8F80000FFF770
:100B0000D7FD064605E000BFFFF7D2FD801B022897
:100B1000C0D828688007F7D52868216920F0F80038
:100B200040EAC10028600DE0C8F800A0FFF7C0FD52
:100B3000064604E0FFF7BCFD801B02281FD828688A
:100B40008007F7D42078000722D5824E8348616958
:100B5000703671B101210160FFF7AAFD074604E07C
:100B6000FFF7A6FDC01B022809D830688007F7D51B
:100B70000EE0C0F800A0FFF79BFD074605E082E00D
:100B8000FFF796FDC01B02287DD830688007F7D498
:100B90002078400768D5DFF8BCB100270BF13C0B8B
:100BA000DBF80000C0000BD4DBF8001041F08051EE
:100BB000CBF80010DBF80000012700F08050009017
:100BC000674E3068C00510D4306840F480703060E3
:100BD000FFF76EFD009005E0FFF76AFD0099401AEF
:100BE000022850D83068C005F6D55A4EA0686C3639
:100BF00001280FD00528306810D020F001003060A7
:100C0000306820F004003060A068B8B1FFF750FDF4
:100C100000900FE0306840F00100F4E740F004007D
:100C20003060F7E7FFF744FD0099411A41F2883040
:100C3000814266D830688007F4D50EE0FFF738FDB2
:100C4000009007E0FFF734FD0099411A41F2883027
:100C5000814256D830688007F4D42FB1DBF80010F9
:100C600021F08051CBF80010A069C8B33949091DA3
:100C70000968C1F3810102294AD00228504607D0F1
:100C8000C8F8600000E03CE0FFF712FD04463BE0DE
:100C90004746C8F86000FFF70BFD064605E000BFB9
:100CA000FFF706FD801B02282BD828688001F7D4A7
:100CB000D4E907010843A16A2A4A490802EB014125
:100CC000626A41EA8211084394F82C1040EA0161FB
:100CD000C9F8001001203866FFF7EAFC044606E078
:100CE00036E000BFFFF7E4FC001B022809D82868A3
:100CF0008001F7D52CE000BFFFF7DAFC001B0228CB
:100D000002D90320BDE8F88F28688001F4D41FE0E1
:100D10000128F7D0D9F80000E26900F4800191427F
:100D200014D1226A00F03F0191420FD147F6C07101
:100D3000626A0140914209D1A26A00F440319142B5
:100D400004D1E16A00F07060884201D00120D9E747
:100D50000020D7E70438024000004742800E474297
:100D6000007000400000FFFF10B5401EB0F1807F12
:100D700001D3012010BD4FF0E02460610F21601706
:100D800000F0B2FA0020A06107202061002010BD11
:100D900070B5040004D094F83900002510B106E0C5
:100DA000012070BD84F83850204600F023F824203C
:100DB00084F839002068C16821F40051C1602046E0
:100DC00000F0AEF92068016921F4904101612068CA
:100DD000416921F02A0141612068C16841F4005154
:100DE000C160E563202084F8390084F83A000020CF
:100DF00070BD000010B586B0044614216846FFF7A8
:100E0000D5FA14492068884221D11348002102688C
:100E100042F010020260006800F0100005900E48D9
:100E20001438026842F001020260006800F001001C
:100E300005904FF4C06000900220CDE9010103202D
:100E400003900720049069460448FFF741FB06B071
:100E500010BD000000100140443802400000024074
:100E60002DE9F843044690F839001F4616460D4612
:100E7000202850D1B5B1AEB194F8380001284AD03D
:100E8000012084F838004FF00008C4F83C8021208D
:100E900084F83900FFF70CFCA6848146E68484F8C8
:100EA000388026E00120BDE8F883E08C401EE08415
:100EB000A0684B46B0F5805F4FF000024FF0800114
:100EC0002046009703D000F0BFF9E8B90DE000F02C
:100ED000BBF9C8B928882168C0F3080048602069B8
:100EE00008B16D1C05E0AD1C03E0216815F8010B8D
:100EF0004860E08C0028D8D14B4600224021204693
:100F0000009700F0A1F908B10320CCE7202084F875
:100F100039000020C7E70220C5E7000030B587B0E0
:100F200014216846FFF742FA19480024016841F08D
:100F300004010160016801F004010591016841F0BC
:100F400080010160016801F080010591016841F0B4
:100F500002010160016801F002010591016841F0A0
:100F60000101016000680B4D00F0010005900022B6
:100F700003212846FFF796FB032000900120CDE9CE
:100F80000104694628460394FFF7A2FA07B030BD72
:100F900030380240000402400C4810B50A49016094
:100FA0004FF4E1314160002181600C22C160C0E951
:100FB00004128161C161FFF7EBFE002803D0BDE898
:100FC0001040FFF784BA10BD00100140A4000020BB
:100FD000FEE77047704710B501F010FD02F09EF873
:100FE000BDE8104001F018BD30B593B0302168461F
:100FF000FFF7DCF914210CA8FFF7D8F920480025E9
:10100000016841F080510160006800F0805011904B
:101010001C48016841F4404101600068022400F46A
:101020004040119001200090000401908001CDE922
:101030000640192008904FF4B470CDE9090404204B
:101040000B906846FFF7E2FC08B1FFF740FAFFF7A4
:10105000B9FB08B1FFF73BFA0CA90F2081E831007A
:101060004FF4A0500F904FF48050109005210CA821
:10107000FFF7E0FB002801D0FFF729FA13B030BDDD
:10108000403802400070004070B5194C2068194A81
:1010900010F00C01184804D0184D042903D0082979
:1010A00003D002601BE0056019E01149091F0B68BD
:1010B000C3F380560B6803F03F0316B1B5FBF3F2A0
:1010C00001E0B2FBF3F20B680968C3F388135A43DB
:1010D000C1F30141491C4900B2FBF1F101602168F3
:1010E000074AC1F30311515C0268CA40026070BD37
:1010F000083802400024F4000C00002040787D01F4
:10110000D63600080548016841F4700101600349C2
:101110004FF00060803908607047000088ED00E003
:101120002DE9F041044600680169E26821F440516C
:10113000114301612169A068E269084361691143B3
:1011400008432168CA6849F20C639A430243CA60A3
:1011500020684169A26921F4407111434161E0694D
:10116000192764253226B0F5004F354A35492068E5
:101170004FF0000806D0884201D0904236D1FFF7E8
:1011800003FC35E0884201D0904202D1FFF7FCFB1E
:1011900001E0FFF7E9FB61684A18A0FB070148EB93
:1011A0000803FFF7B9F80146B0FBF5F00201B1FB07
:1011B000F5F06FF01803584301EB800006EBC00018
:1011C000B0FBF5F000F0F80002EB4002B1FBF5F0E7
:1011D000584301EB800006EBC000B0FBF5F000F0D7
:1011E0000700216810448860BDE8F081FFF7BCFB70
:1011F00061688B0F8A00A0FB0701FFF78DF801469D
:10120000B0FBF5F06FF01802504301EB800006EBE5
:101210000010B0FBF5F000F0F002B1FBF5F002EBCE
:101220000012B1FBF5F06FF01803584301EB80009A
:1012300006EB0010B0FBF5F000F00F00D1E7000066
:1012400000140140001001402DE9F0419846174676
:101250000E460446069D1DE0681C1BD02DB1FFF70D
:1012600027FAA0EB0800A84214D92068C16821F42D
:10127000D071C1602068416921F0010141612020E5
:1012800084F8390084F83A00002084F838000320FC
:10129000BDE8F0812068006836EA000004D0002034
:1012A000B842D9D00020F3E70120F9E701B54FF6A5
:1012B000FF73012269460248FFF7D2FD08BD000016
:1012C000A4000020FEE700000FB4054B10B503A9F1
:1012D000044A029800F0A2F810BC5DF814FB00006C
:1012E0007D1A0008A00000200907090E002804DB71
:1012F00000F1E02080F80014704700F00F0000F1CA
:10130000E02080F8141D7047002807D00E4910F027
:10131000FF0F04D051FA80F00078401C704710F4A1
:101320007F4F04D0C0F30720085C0930704710F4E9
:101330007F0F04D0C0F30740085C1130704701EB09
:101340001060007819307047EE36000802E008C8D7
:10135000121F08C1002AFAD170477047002001E02F
:1013600001C1121F002AFBD1704700000348016829
:10137000814201D0012070470020704764000020A6
:101380002DE9F04F89B092468B460646002400E0D6
:10139000641C305D202803D0092801D05C45F7D3B8
:1013A0004FF0FF387CB3194804F10609184F05685F
:1013B00011E0062217A12868FFF72BF850B928681A
:1013C00022463146801DFFF724F818B9296811F824
:1013D000090020B1083538688542EAD314E06C680A
:1013E0008CB120216846FEF7E1FF6A465946304637
:1013F00001F016F838B16946A047CAF8000000208D
:1014000009B0BDE8F08FFFE74046F9E7880000200B
:101410008C0000205F5F636D645F00002DE9FF4F6B
:1014200089B09B460446002506E025280BD05A4685
:101430000B999047641C6D1C20780028F5D10DB0E5
:101440002846BDE8F08F0027B8460122474900E052
:10145000074314F8013F203B02FA03F00842F7D19A
:1014600020782E2819D114F8010F47F004072A28F4
:101470000ED06FF02F022078A0F1300109290CD88E
:1014800008EB880102EB410100EB0108641CF2E764
:101490000A98641C50F8048B0A9020780028CED05B
:1014A000642808D0692806D075281ED05A460B99A2
:1014B00090476D1C58E00A994FF00A0901C90A913A
:1014C000002802DA40422D2102E0390504D52B2103
:1014D0008DF82010012103E0F90704D02021F7E75F
:1014E0008A4608AE0DE00021FAE70A994FF00A0992
:1014F00001C90A91F7E74946FEF79AFF303106F82D
:10150000011D0028F7D1ADEB060000F12009780796
:1015100001D44FF00108C84502DDA8EB090000E046
:1015200000208046002706E008A85A46C05D0B99B7
:1015300090476D1C7F1C5745F6DB04E030205A466F
:101540000B9990476D1CB8F10001A8F10108F5DC7A
:1015500005E016F8010B5A460B9990476D1CB9F13E
:101560000001A9F10109F4DC641C65E70928010008
:101570002DE9FC411F460446DDE90831DDE90A6535
:10158000143040600060C4E90827C4E90A310A4603
:10159000232118461C3401F097FAD4E903014218BC
:1015A000D4E90101104B121F01F00AFA44F81A0B9A
:1015B000002004F801690D4A04F8036BE4E8020511
:1015C00044F8105901C404F83C0B01C444F87409F0
:1015D000009023460190194604F1440001F010FEEA
:1015E0000020BDE8FC810000212E00085B300008CF
:1015F000F0E905124A60D0E9001211604060006015
:101600007047000010B51BA001F014FA1C4C2178A3
:101610001CA001F00FFA2078C00702D01FA001F033
:1016200009FA2078800702D51FA001F003FA20787C
:10163000400702D51FA001F0FDF92078000702D570
:1016400020A001F0F7F92078C00602D520A001F013
:10165000F1F92078000607D509480F300168BDE888
:1016600010401DA001F0E6B9BDE810401EA001F039
:10167000E1B90000627573206661756C743A0A0006
:1016800029ED00E05343425F434653525F424653C5
:10169000523A3078253032582000000049425553E4
:1016A00045525220000000005052454349534552D4
:1016B00052200000494D5052454349534552522053
:1016C00000000000554E53544B455252200000007C
:1016D00053544B45525220005343422D3E42464103
:1016E000523A253038580A000A00000010B500F0C0
:1016F000B9FB002010BD0000104810B5416991F8F9
:101700002110890703D40E490020087013E00169F5
:1017100021B180220A48FEF760FE0CE000F07EFE58
:1017200008B108A100E009A10548FEF769FE09A17A
:101730000348FEF746FE024810BD00008800002066
:10174000D80500206D7368200000000066696E7384
:10175000682000003E0000000349496911F8212F6C
:1017600060F341020A70704788000020014AC2E914
:1017700000017047880000207FB514491448FFF726
:10178000F5FF154C13480A23A0F51E75606115225C
:101790004FF40071A0F500708DE80F0000230F4A90
:1017A0000FA1783801F0BEFB064600231A460EA1B1
:1017B000606901F079FA0120FFF7CEFF16B92846DB
:1017C00001F014FC04B0002070BD00008039000856
:1017D00010390008D408002088000020F117000804
:1017E000747368656C6C00007368727800000000A8
:1017F000984D686910F8211F41F001010170FFF751
:101800007BFF01F017F9002600F09CFF0400FBD4D9
:101810001B2C07D0686990F82010012907D00229F5
:101820000ED017E06969012081F82000ECE75B2CFD
:1018300002D080F820600DE0022180F82010E3E75C
:1018400080F82060412CDFD0422CDDD0442C38D0F1
:10185000432C43D0002CD7D0FF2CD5D0092C4ED010
:101860007F2C75D0082C73D00D2C70D00A2CFCD096
:10187000B0F87210502901D3A0F87260B0F874303B
:10188000B0F872108B427DD2CA1A00F122012330C7
:101890001944184401F0FEF86869B0F87410223059
:1018A0000C54686990F82110C90706D0B0F874107C
:1018B0002230014468A001F0BDF86869B0F87440B6
:1018C000A5E0B0F8740000289ED064A001F0B2F842
:1018D000686930F8741F491E018095E7B0F87410EC
:1018E000B0F8722091428FD22230095C5CA001F0E6
:1018F000A1F8696931F8740F401C088084E700245E
:1019000003E056A001F096F8641C6869B0F8740012
:10191000A042F6DC6C6953A0223401F08BF800F091
:101920007DFD012802D1204600F0BAFCFFF7E4FE5D
:10193000014622464CA001F07DF868692230FEF78E
:1019400058FD696921F8720F48805DE700E03DE0CD
:10195000B0F87420002AC0D0B0F87210521E491E90
:1019600089B293B2A0F87210A0F87430994224D9C9
:10197000CA1A00F1230122301944184401F08AF8F0
:10198000686900E049E0B0F8721022300E546869CE
:10199000B0F874102230014435A001F04BF86869AA
:1019A000B0F8744003E02DA001F044F8641C6869AD
:1019B000B0F87200A04290DBF5E72FA001F03AF8F2
:1019C0006869B0F8721022300E541DE700F026FD51
:1019D00001280DD1686990F82100C00702D021A02C
:1019E00001F028F86869B0F87210223000F0AEFCFF
:1019F000FFF782FE01F01EF8686950212230FEF7E1
:101A0000D5FC686922E015A001F014F8641C68692F
:101A1000B0F87200A042F6DC0AE022300C5468698B
:101A200090F82100C00703D021460DA001F002F874
:101A30006869B0F87210491C89B2A0F87210B0F849
:101A40007420521CA0F874205029BED320F8726F65
:101A50004680D9E6880000202573000008000000B9
:101A6000256300000A0000002573257300000000B4
:101A700008257320200800000820080010B504463F
:101A8000C0B2FFF713FC204610BD000010B5124C89
:101A90002068800702D511A000F0CCFF206840002C
:101AA00011D50D48C01E007808B1FFF7ABFD0A48FC
:101AB000001F007808B100F087FB0748801E0088EF
:101AC00008B101F09BFD2068002804DABDE8104051
:101AD00008A000F0AFBF10BD2CED00E06661696C9E
:101AE000656420766563746F722066657463680A46
:101AF000000000006465627567206576656E740A93
:101B00000000000010B502A000F094FF002010BDFE
:101B100048656C6C6F2052542D5468726561642165
:101B20000A00000070B50BA000F084FF0E480F4DB6
:101B300004680AE002220EA12068FEF76AFC18B1D0
:101B40000CA0216800F076FF083428688442F1D3A5
:101B5000002070BD2D2D46756E6374696F6E204C2C
:101B60006973743A0A000000880000208C0000208D
:101B70005F5F000025730A002DE9F04104461E4610
:101B800017460D46084600F0D5FF001D206025725F
:101B900000206760C4E90360BDE8F0812DE9F041F1
:101BA0000D4600212961E96891B1297A81B12E6839
:101BB00088B10446FEF716FB0146A4F10C002A7A10
:101BC000007A20F08000904209D00846FEF70EFB14
:101BD0000020BDE8F0813446FEF704FB014668684A
:101BE00000272468B44201D1002404E010C0EA6850
:101BF0007F1CBA42F5D10846FEF7F8FA20462F615D
:101C0000E7E700002DE9F04196B000262FA4082355
:101C10000CAA052106A8FFF7AFFF08208046014661
:101C200022462CA000F006FF404600F061FC32A0E6
:101C300000F000FF06A93046FFF7B0FF064600257A
:101C40003BE00CA850F825400C3CFEF7CBFA0146CF
:101C5000207A9DF8202020F080009042084602D093
:101C6000FEF7C4FA28E0FEF7C1FA606904F1140730
:101C7000B842384613D000F0FBFE228C618C0091F4
:101C8000CDE9012023460822414622A000F0D2FEE1
:101C9000384601F087FC25A000F0CCFE0CE000F0F7
:101CA000E7FE218C628CCDE90021029023460822B8
:101CB00041461FA000F0BEFE6D1C0A98A842C0DC81
:101CC000002EB7D116B00020BDE8F0816D61696CBF
:101CD000626F7800252D2A2E7320656E747279202C
:101CE00073697A652073757370656E6420746872A9
:101CF0006561640A00000000202D2D2D2D20202D6F
:101D00002D2D2D202D2D2D2D2D2D2D2D2D2D2D2D10
:101D10002D2D0A00252D2A2E2A73202530346420EB
:101D200020253034642025643A0000000A000000B9
:101D3000252D2A2E2A732025303464202025303486
:101D4000642025640A0000002DE9F04194B00026CB
:101D50002CA408230BAA022105A8FFF70DFF0820D9
:101D60008046014622462AA000F064FE404600F06C
:101D7000BFFB2EA000F05EFE05A93046FFF70EFF68
:101D80000646002535E00BA850F825400C3CFEF730
:101D900029FA217A9DF81C2021F08001914202D07D
:101DA000FEF724FA24E0FEF721FA606904F1140733
:101DB000B842384611D000F05BFEA18BCDE900108F
:101DC0002346082241461FA000F034FE384601F0A9
:101DD000E9FB15A000F02EFE0AE000F049FEA18B01
:101DE000CDE900102346082241461AA000F022FE49
:101DF0006D1C0998A842C6DC002EBDD114B000208D
:101E0000BDE8F08173656D6170686F7265000000F8
:101E1000252D2A2E73207620202073757370656E11
:101E200064207468726561640A000000202D2D2D05
:101E3000202D2D2D2D2D2D2D2D2D2D2D2D2D2D0A02
:101E400000000000252D2A2E2A732025303364201F
:101E500025643A00252D2A2E2A732025303364204C
:101E600025640A002DE9F041B4B000263CA4082303
:101E70002CAA012126A8FFF77FFE082080460146F4
:101E80002246394800F0D6FD404600F031FB37A02D
:101E900000F0D0FD26A93046FFF780FE064600255B
:101EA00054E02CA850F825400C3CFEF79BF907465F
:101EB000207A9DF8A01020F08000884203D0384698
:101EC000FEF794F941E07822214607A8FEF755FA7B
:101ED0003846FEF78BF994F8350000902346082227
:101EE000414632A000F0A6FD94F8340000F00F0047
:101EF000012807D0022807D040B1042808D00328C1
:101F000008D00AE02CA006E02EA004E030A002E0F9
:101F100032A000E034A000F08DFDA06A014600E090
:101F2000401C0278232AFBD0E26A401A101A64236C
:101F30005843B0FBF2F3276B206CCDE90007E06952
:101F4000081A81182BA000F075FD6D1C2A98A84274
:101F5000A7DC002E9ED134B00020BDE8F081000047
:101F60007468726561640000B8380008202D2D2D5A
:101F700020202D2D2D2D2D2D2D202D2D2D2D2D2DB8
:101F80002D2D2D2D202D2D2D2D2D2D2D2D2D2D209B
:101F9000202D2D2D2D2D2D20202D2D2D2D2D2D2D98
:101FA0002D2D2D202D2D2D0A00000000252D2A2E4F
:101FB0002A73202533642000207265616479202013
:101FC000000000002073757370656E6400000000EF
:101FD00020696E69742020200000000020636C6F6F
:101FE00073652020000000002072756E6E696E67B8
:101FF00000000000203078253038782030782530F7
:1020000038782020202025303264252520202030DB
:10201000782530387820253033640A00F0B593B045
:10202000002626A408230BAA0A2104A8FFF7A4FD72
:1020300008272246394623A000F0FCFC384600F071
:1020400057FA2AA000F0F6FC04A93046FFF7A6FDD7
:102050000646002524E00BA850F825400C3CFEF76E
:10206000C1F8217A9DF8182021F08001914202D018
:10207000FEF7BCF813E0FEF7B9F8D4E90901CDE9A1
:10208000000123460822394621A000F0D3FC607AE3
:10209000C00701D024A000E026A000F0CBFC6D1CFE
:1020A0000898A842D7DC002ECED101F031F80146C5
:1020B00024A000F0BFFC13B00020F0BD74696D6572
:1020C00072000000252D2A2E732020706572696F22
:1020D00064696320202074696D656F757420202009
:1020E00020202020666C61670A000000202D2D2D25
:1020F0002D2D2D2D2D2D2D202D2D2D2D2D2D2D2D1D
:102100002D2D202D2D2D2D2D2D2D2D2D2D2D0A005C
:10211000252D2A2E2A7320307825303878203078E3
:102120002530387820000000616374697661746539
:10213000640A000064656163746976617465640AA9
:102140000000000063757272656E74207469636BC1
:102150003A3078253038780A00000000FEF7AEFAF1
:10216000FEF742FFFEF7DAFEFEF716FF0FA0FFF7BD
:10217000ABF8104C002202212046FEF793FA012210
:1021800011462046FEF78EFA322000F0E3FE0122CF
:1021900002212046FEF786FA002201212046FEF7A2
:1021A00081FA322000F0D6FEE4E700003132333409
:1021B000350D0A000004024010B500F069FABDE8D0
:1021C0001040FFF7CBBF000010B518A000F032FCA4
:1021D0001B4C21781BA000F02DFC2078C00702D0FA
:1021E0001EA000F027FC2078800702D51EA000F07A
:1021F00021FC2078000702D51EA000F01BFC2078EF
:10220000C00602D51EA000F015FC2078000607D5F8
:102210000B480C300168BDE810401CA000F00ABC5F
:10222000BDE810401D4800F005BC00006D656D2044
:102230006D616E616765206661756C743A0A0000B5
:1022400028ED00E05343425F434653525F4D4653EF
:10225000523A30782530325820000000494143433B
:1022600056494F4C200000004441434356494F4CCF
:10227000200000004D554E53544B45525220000053
:102280004D53544B45525220000000005343422D01
:102290003E4D4D41523A253038580A006C36000800
:1022A0002DE9F0478046002500782C4618B12248D9
:1022B000224F066831E0BDE8F0470021084600F0F3
:1022C00077B806221EA13068FEF7A3F820BB30685D
:1022D00000F106094046FEF78CF8024649464046A2
:1022E000FEF797F8C0B925B94C464846FEF781F885
:1022F00005464946204601E0401C491C02781AB1B7
:102300000B780BB19A42F7D0001BA84200DA0546C1
:1023100049460DA000F08EFB083638688642D0D3BF
:10232000002C06D02A4621464046BDE8F04700F082
:102330002DBDBDE8F0870000880000208C00002043
:102340005F5F636D645F000025730A0038B5044663
:1023500001E0491E641C20782028FAD00928F8D012
:1023600031B16A462046FFF70BF818B1204604E069
:10237000002038BD009838BD401C0178202901D0CC
:102380000029F9D100210170214603A000F052FB81
:102390004FF0FF3038BD000025733A20636F6D6D3C
:1023A000616E64206E6F7420666F756E642E0A0015
:1023B00070B50DA000F03EFB1248134D04680BE011
:1023C000062212A12068FEF724F820B9216811A086
:1023D000891D00F02FFB083428688442F0D30EA03A
:1023E00000F028FB002070BD52542D5468726561C6
:1023F00064207368656C6C20636F6D6D616E6473CF
:102400003A0A0000880000208C0000205F5F636DA6
:10241000645F0000257320000A000000012070475F
:1024200070B5002315461C461A464BE000F8012BF8
:102430005B1C0678202E01D0092E01D18B42F5D3EA
:10244000082C11D321A000F0F5FA002606E000BF09
:1024500055F8261025A000F0EDFA761CA642F7D319
:1024600021A000F0E7FA2FE08B422DD2F6B2222E07
:1024700003D045F82400641C1BE0401C45F82400F0
:102480005B1C641C08E05C2E04D14678222E01D12E
:10249000401C5B1C401C5B1C0678222E01D08B422A
:1024A000F1D38B4210D200F8012B5B1C0AE0401CD8
:1024B0005B1C0678202E03D0092E01D08B42F6D368
:1024C0008B4201D28B42B4D3204670BD546F6F2033
:1024D0006D616E7920617267732021205765206FCE
:1024E0006E6C79205573653A0A0000002573200050
:1024F00010B5044602E003A000F09CFA641EFAD274
:1025000010BD00002D0000002DE9F04F85B0994668
:10251000DDE90EA5109CAB46630602D5DFF814C1B9
:1025200003E0DFF810C1ACF1110CE30601D524F093
:102530000104E30701D0302300E0202300260493A8
:10254000A3070BD5002A02DA2D26524206E06307C4
:1025500001D52B2602E0230700D520260023EE46D6
:1025600022B930228DF8002001230CE0B9F10A0FC6
:1025700014D002F00F0812091CF808800EF803802E
:102580005B1C002AF2D1AB4200DD1D46AAEB05021E
:1025900014F0110F4FF0200708D015E00A27B2FB06
:1025A000F7F807FB1828B2FBF7F2E5E73EB1002A7F
:1025B00005DD521E03E0884200D20770401CB2F1D4
:1025C000000CA2F10102F6DC26B1884200D20670AE
:1025D000401C521EE40605D508E0884201D2049C46
:1025E0000470401C141EA2F10102F6DC30242E46B9
:1025F0006D1E9E420ADD884200D20470401CF6E740
:10260000884201D2E55C0570401C00E074461D1E46
:10261000A3F1010307DDBBF1000FF1D103E0884214
:1026200000D20770401C131EA2F10102F7DC05B0B6
:10263000BDE8F08FFF3700081FB50A4C14230A22AB
:102640004FF40071A4F500708DE80F000023064AD6
:1026500006A1204600F066FC04B02046BDE810400C
:1026600000F0C4BCE8020020B92100086D61696E69
:102670000000000070B5044C044D02E02068804763
:10268000241DAC42FAD370BD00390008043900089B
:1026900070B5044C044D02E020688047241DAC4214
:1026A000FAD370BD043900080C39000810B5FDF7E5
:1026B00099FD044A5188491C5180BDE81040FDF73E
:1026C00095BD00005800002010B5FDF78BFD0B4CA8
:1026D0006188491E09B2618000290ADC00216180FD
:1026E000FDF784FD6068002807D0BDE8104000F0C9
:1026F00063BABDE81040FDF779BD10BD5800002059
:1027000010B5FEF7C1FC0D484FF47A710068B0FBBC
:10271000F1F0401EB0F1807F09D24FF0E021084A6D
:102720004861FF2010700020886107200861FFF7D2
:10273000A1FFBDE81040FEF72FBC00000C000020F8
:1027400023ED00E038B50B484FF0FF340068016816
:10275000C943890602D44068C4B209E00168C9438C
:10276000090702D4016840680090052000F0F2FBE0
:10277000E0B238BDA40000202DE9F0410646002457
:102780000D2700F0FBFA054609E0305D0A2802D16A
:102790003846FEF78BFD305DFEF788FD641CAC42C9
:1027A000F3D3BDE8F081000070B53149054628300B
:1027B00009682C1D11B18847002857D02DA0216C25
:1027C00000F038F92FA0616A00F034F931A0A16A55
:1027D00000F030F933A0E16A00F02CF935A0216B4C
:1027E00000F028F937A0616800F024F939A0A16849
:1027F00000F020F93BA0E16800F01CF93DA0216940
:1028000000F018F93FA0616900F014F941A0A16936
:1028100000F010F943A0E16900F00CF945A0216A2D
:1028200000F008F947A0616B00F004F949A0A16B22
:1028300000F000F94BA0E16B00F0FCF828784007AD
:1028400008D500F0ADFB01464AA000F0F3F8FFF711
:1028500009FB02E04FA000F0EDF82878C00602D492
:1028600053A000F0E7F8FFF711F9FEE770BD000094
:10287000780000207073723A203078253038780A5A
:10288000000000007230303A203078253038780A65
:10289000000000007230313A203078253038780A54
:1028A000000000007230323A203078253038780A43
:1028B000000000007230333A203078253038780A32
:1028C000000000007230343A203078253038780A21
:1028D000000000007230353A203078253038780A10
:1028E000000000007230363A203078253038780AFF
:1028F000000000007230373A203078253038780AEE
:10290000000000007230383A203078253038780ADC
:10291000000000007230393A203078253038780ACB
:10292000000000007231303A203078253038780AC3
:10293000000000007231313A203078253038780AB2
:10294000000000007231323A203078253038780AA1
:1029500000000000206C723A203078253038780A68
:10296000000000002070633A203078253038780A63
:102970000000000068617264206661756C74206FED
:102980006E207468726561643A2025730D0A0D0A21
:102990000000000068617264206661756C74206FCD
:1029A0006E2068616E646C65720D0A0D0A0000008D
:1029B00046505520616374697665210D0A00000058
:1029C00070B50446121D22F0070000220A4D44385B
:1029D00040F82250521C112AFAD341620021816230
:1029E000C16200F13402016382E81A004FF0807383
:1029F0000364016070BD0000EFBEADDE10B5FDF7F1
:102A0000F1FB044A1178491C1170BDE81040FDF734
:102A1000EDBB00001400002010B5FDF7E3FB044AF5
:102A20001178491E1170BDE81040FDF7DFBB0000B2
:102A3000140000200FB47F2110B503AB0448029AA4
:102A400000F054FC0248FFF797FE10BC5DF814FB41
:102A5000580400200268516002680A600160486002
:102A600070470268516002680A6001604860704700
:102A70000246002100E0491C00689042FBD1084654
:102A80007047D0E900124A60D0E90012116040603E
:102A90000060704710B50346994211D28C189C42D1
:102AA0000ED9811804E000BF14F8013D01F8013D82
:102AB000521EF9D210BD00BF11F8014B03F8014BB3
:102AC000521EF9D210BD000010B50346CCB2042A44
:102AD0001AD3810718D1194644EA042343EA034371
:102AE00006E008C1103A08C141F8083B41F8043C2F
:102AF000102AF6D201E008C1121F042AFBD20B46AD
:102B000002E000BF03F8014B521EFBD210BD10B50E
:102B1000044600202072FDF765FBF4E903124A60C9
:102B2000D4E90012116064602460BDE81040FDF734
:102B30005DBB0000074A002102EB01131B788342B2
:102B400002D102EB01107047491C0429F4DB00207C
:102B500070470000180000202DE9F0410546174697
:102B60000E460846FFF7E6FF0446FFF79FFD211DCE
:102B7000606800E000688842FCD1FFF7A5FD46F0E0
:102B80008000287208223946284600F0FFF8FDF739
:102B900029FB54F8041F0C354D602168296025601D
:102BA0006C60BDE8F041FDF721BB007A000601D55D
:102BB000012070470020704770B5FDF713FB114CE2
:102BC00005466088B0B9A068FEF79EFB0E49401E1E
:102BD000626851F83010143991420BD020700B48C4
:102BE0006160007801F11C01002802F11C0006D090
:102BF000FDF7FFFA2846BDE87040FDF7F7BAFDF78C
:102C0000F8FAF7E758000020D8040020140000204C
:102C100010B50446FDF7E6FA024694F834000E4972
:102C200020F00F00401C84F8340094F8350001EBCC
:102C3000C00104F114004B6818604B68A361486040
:102C400006486161A16B836819438160BDE810404B
:102C50001046FDF7CBBA0000D80400205800002031
:102C600010B50446FDF7BEFA04F11401D1E90023C2
:102C70005360D1E900231A60A161616194F83520A5
:102C8000074951F8323001EBC2018B4204D10549AA
:102C9000A36B8A689A438A60BDE81040FDF7A6BA24
:102CA000D8040020580000202DE9F04116460A46BD
:102CB0001F4605460221FFF74FFF05F11404AC61E2
:102CC0006C61AE836F720020BDE8F08108B509A089
:102CD000FFF7B0FE0AA0FFF7ADFE12A0032300909D
:102CE0000122194612A0FFF7A5FEBDE8084018A072
:102CF000FFF7A0BE0A205C207C202F0A0000000005
:102D00002D205254202D20202020205468726561EF
:102D100064204F7065726174696E672053797374B3
:102D2000656D0A004F637420313720323032300035
:102D3000202F207C205C202020202025642E25644C
:102D40002E2564206275696C642025730A000000DA
:102D50002032303036202D203230313920436F7010
:102D60007972696768742062792072742D74687250
:102D7000656164207465616D0A000000014600E031
:102D8000491C0A78002AFBD1081A704710B5002A9E
:102D900007D0034611F8014B03F8014B2CB1521E2A
:102DA000F8D110BD03F8011B00E00021521EF9D13B
:102DB00010BD000010B50A4900230A4C4B8018468C
:102DC00004EBC002401C526012602028F8DB1F2078
:102DD000087003484B600C308B604060006010BD91
:102DE00058000020D804002010B5074CA068FEF75A
:102DF0008BFA0649401E51F8300014386060BDE877
:102E000010401C30FDF73BBA58000020D8040020C9
:102E1000014840600060704770000020704700006B
:102E200070B513480468FDF7DDF905462046FFF745
:102E300017FF042084F8340004F1440000F0D0F9B6
:102E40002046FFF7B2FE012801D1206F58B104F1EE
:102E500014010848FFF7FEFD2846FDF7C7F9BDE855
:102E60007040FFF7A9BE2046FFF751FEF4E70000CF
:102E70005C0000206400002000F002F8FCE7000085
:102E800070B521E0FDF7AEF90546FEF76FFA28B3FD
:102E900015480168A1F11404D1E900024260D1E9AA
:102EA0000002106049600960FFF700FC216F09B162
:102EB000204688472046FFF778FE012809D0FFF713
:102EC00003FC2846FDF792F9FEF750FA0028D9D105
:102ED00070BD2046FFF71BFEFFF7F6FB2846BDE856
:102EE0007040FDF783B90000640000201FB5094859
:102EF00020231F2280218DE80F000023064A07A10E
:102F0000783800F00FF804B00248BDE81040783877
:102F100000F06CB8D8030020792E00087469646C46
:102F2000650000002DE9FF5F92460EAA0C4692E86C
:102F3000E0010A46994683460121FFF70DFE8DE820
:102F4000E0014B46524621465846FEF711FB04B0BD
:102F5000BDE8F09F10B500F0C1F8BDE8104000F0EA
:102F600025B870B5044690F8340000F00F00022830
:102F700002D04FF0FF3070BDFDF734F9054604F183
:102F80001400FFF77EFD04F1440000F097F9284695
:102F9000FDF72CF92046FFF73BFE002070BD000036
:102FA00001480068704700005C000020F1B5FDF7A3
:102FB00019F905460C480468204600F02DF804F184
:102FC00044006A460021064600F0F2F8304600F060
:102FD0002FF92846FDF70AF9FFF7EEFD206B801C5C
:102FE00000D120630020F8BD5C00002010B590F8EF
:102FF0003610012280F835108A400221826380F861
:103000003410FFF7AEFF0348006808B1FFF7D4FDA6
:10301000002010BD5C00002070B5044690F834001C
:1030200000F00F00012802D04FF0FF3070BDFDF717
:10303000D9F8054694F8340020F00F00801C84F87D
:1030400034002046FFF70CFE04F1440000F036F98E
:103050002846FDF7CBF8002070BD10B504466FF090
:103060000100206304F11400FFF70BFD2046FFF779
:10307000CFFDBDE81040FFF79FBD000070B5FDF724
:10308000B1F806461348046894F8340000F00F00C5
:10309000012819D1D4E90501884215D004F11400A2
:1030A0000546FFF7EEFC94F835000B4901EBC00034
:1030B00041680D6041686960456028603046FDF7F1
:1030C00095F8FFF779FD02E03046FDF78FF8002014
:1030D00070BD00005C000020D8040020002802DA47
:1030E0004FF0FF3070474FF47A7190FBF1F290FB94
:1030F000F1F301FB130000EB40034A43C3EBC010A4
:103100004B1E03EBC00090FBF1F010447047000031
:10311000014800687047000010000020094810B501
:103120000168491C0160FFF73BFF016C491E016407
:1031300003D1C16B0164FFF7A1FFBDE8104000F0AF
:1031400003B80000100000202DE9F041FFF7E0FF78
:103150000646FDF747F80746144D1EE060696FF01C
:103160000041301A143C88421AD22046FEF740FA39
:10317000D4E907108847FFF7CBFF0646607A81073E
:1031800008D5C10706D020F001006072204600F08B
:103190004FF802E020F0010060722C68AC42DDD1F3
:1031A0003846BDE8F041FDF721B80000700000206E
:1031B00049B1012904D0022908D003290ED109E020
:1031C000406A10600AE01168416207E0417A21F02C
:1031D000020102E0417A41F0020141720020704791
:1031E00070B50546FCF7FEFF04462846FEF700FAD8
:1031F0002046FCF7FBFF2846FFF789FC002070BD46
:103200002DE9F0411746DDE906580A461E460446F8
:103210000A21FFF7A1FC28F0010161720021C4E935
:103220000951C4E90776143464602460BDE8F08174
:10323000F8B50446FCF7D6FF05462046FEF7D8F958
:10324000607A20F0010060722846FCF7CFFFFFF79C
:103250005FFF616A0844A062FCF7C4FF0546164A96
:103260000020009202EBC002694653686FF0004CE8
:103270005DF820200BE01268A2EBC0067769A66A11
:10328000B74202D0BE1B664503D341F820209A42C4
:10329000F1D10948001F0168491C016004F11401C3
:1032A0000098FFF7DEFB607A40F00100607228466C
:1032B000FCF79CFF0020F8BD7000002070B50446AC
:1032C000407AC0070ED0FCF78DFF05462046FEF77A
:1032D0008FF92846FCF78AFF607A20F001006072BF
:1032E000002070BD4FF0FF3070BD00002DE9FF4F92
:1032F0008946044600EB090783B080464FF0FF3A49
:103300004FF0200BA74202D25746C8F1FF3907E120
:10331000252803D0BC4200D2207081E00026059908
:10332000491C059108782D2811D02B2812D020286F
:1033300013D0232814D0302815D00A785546303AB7
:103340000A2A13D205A800F045F905461AE046F00E
:103350001006E4E746F00406E1E746F00806DEE77B
:1033600046F02006DBE746F00106D8E72A2809D117
:103370000698491C059120C80690002D02DA6D427E
:1033800046F01006CDF800A0059801782E2918D136
:10339000401C05900178A1F130020A2A04D205A848
:1033A00000F018F9009008E02A2908D1401C059087
:1033B000069802C8069000910846002801DA00200D
:1033C0000090059800210278682A01D06C2A02D169
:1033D000401C1146059000780A236F287DD00CDC34
:1033E00063281FD004DC25287BD058280DD17EE02F
:1033F000642801D0692808D17DE070285ED0732848
:103400002CD0752879D0782873D0BC4201D22520E1
:1034100020700598641C0178D1B3BC4200D22170A1
:10342000641C7AE0F00608D458466D1E002D04DDB9
:10343000BC4200D22070641CF7E70699BC4211F828
:10344000040B069100D22070584602E0BC4200D224
:103450002070641C6D1E002DF8DC5EE0069808C824
:10346000069003B93EA31846FFF788FC009900298F
:1034700002DD884200DD0846F1060AD459462A4694
:103480006D1E824205DDBC4200D22170641CF6E74D
:1034900052E0002106E0BC4201D21A782270491C99
:1034A0005B1C641C8142F6DB5A4629466D1E814234
:1034B00033DDBC4200D22270641CF6E7681C02D1E6
:1034C000082546F0010600980296CDE900500698BE
:1034D0001023394604C806901BE006E001E00CE02A
:1034E00007E0BC429CD2252016E7082305E046F001
:1034F0004006102301E046F002066C2901D068293D
:103500001DD0069804C8069000983946CDE90050B1
:1035100002962046FEF7F8FF04460598401C0590E9
:103520000598007800287FF4F3AEB9F1000F11D0B0
:10353000BC420DD220700DE0401E0590EDE70698CC
:1035400030F8041B06908AB2B007DDD512B2DBE773
:1035500007F8010C07B0A4EB0800BDE8F08F0000ED
:10356000284E554C4C290000002070470020704721
:10357000002070470020704710B5FCF733FEFFF7BE
:10358000BFF8FFF7A3FBFFF743FCFFF713FCFFF7C0
:1035900053F8FFF743FCFFF7A9FCFFF725FC0020D9
:1035A00010BD000070B5054604680BE0A4F11401DD
:1035B00006A0FFF73FFA2068A84202D004A0FFF758
:1035C00039FA2468AC42F1D170BD000025730000C7
:1035D0002F00000010B5014600206FF02F0307E018
:1035E000541C0C60127800EB800003EB4000104488
:1035F0000A681478303C0A2CF2D310BD10B518A01C
:10360000FFF718FA1A4C21881AA0FFF713FA20883E
:10361000C00702D01DA0FFF70DFA2088800702D551
:103620001DA0FFF707FA2088400702D51DA0FFF76D
:1036300001FA2088000702D51CA0FFF7FBF92088BB
:10364000C00502D51BA0FFF7F5F92088800502D53B
:103650001BA0FFF7EFF9BDE8104004A0FFF7EAB99F
:103660007573616765206661756C743A0A000000C5
:103670002AED00E05343425F434653525F554653A1
:10368000523A30782530325820000000554E4445DB
:1036900046494E5354522000494E565354415445C6
:1036A00020000000494E5650432000004E4F43502A
:1036B00020000000554E414C49474E454420000033
:1036C00044495642595A45524F20000010B5FFF761
:1036D000FDFA002010BD0000000000000000010203
:1036E00003040607080900000000010203040000AB
:1036F00001000200010003000100020001000400BB
:1037000001000200010003000100020001000500A9
:10371000010002000100030001000200010004009A
:103720000100020001000300010002000100060088
:10373000010002000100030001000200010004007A
:103740000100020001000300010002000100050069
:10375000010002000100030001000200010004005A
:103760000100020001000300010002000100070047
:10377000010002000100030001000200010004003A
:103780000100020001000300010002000100050029
:10379000010002000100030001000200010004001A
:1037A0000100020001000300010002000100060008
:1037B00001000200010003000100020001000400FA
:1037C00001000200010003000100020001000500E9
:1037D00001000200010003000100020001000400DA
:1037E000010002000100030001000200010030316D
:1037F0003233343536373839616263646566003098
:103800003132333435363738394142434445460046
:1038100068656C6C6F0076657273696F6E005F5FD0
:10382000636D645F76657273696F6E006C69737443
:103830005F746872656164005F5F636D645F6C698B
:1038400073745F746872656164006C6973745F732C
:10385000656D005F5F636D645F6C6973745F736552
:103860006D006C6973745F6D61696C626F78005F85
:103870005F636D645F6C6973745F6D61696C626FC7
:1038800078006C6973745F74696D6572005F5F6363
:103890006D645F6C6973745F74696D6572006C69E7
:1038A0007374005F5F636D645F68656C70005F5F79
:1038B000636D645F70730000252D2A2E7320707273
:1038C0006920207374617475732020202020207378
:1038D000702020202020737461636B2073697A65E7
:1038E000206D61782075736564206C656674207442
:1038F00069636B20206572726F720A00753500086B
:103900006D35000869350008791700087135000821
:1039100010380008051B000816380008CD360008CE
:103920001E380008CD3600082C380008651E000837
:1039300038380008651E00084A380008491D00088C
:1039400053380008491D000862380008051C0008AB
:103950006F380008051C0008823800081D20000888
:103960008D3800081D2000089E380008251B00081F
:10397000A3380008B1230008AE380008ED1600088F
:10398000A039000800000020A40000004C1300082B
:10399000443A0008A4000020AC0C00005C130008AE
:1039A0000100000010000000000000000024F400EE
:1039B0000000000000000000010000001C000020CA
:1039C0001C00002078000000020000002C000020F5
:1039D0002C00002020000000050000003C0000201A
:1039E0003C000020300000000A0000004C000020D5
:1039F0004C0000202C00000000000000000000002F
:103A000000000000000000000000000000000000B6
:103A100000000000000000000000000000000000A6
:103A20000000000000000000000000000000000096
:103A30000000000000000000000000000000000086
:043A40000000000082
:04000005080001AD41
:00000001FF
